{
  "_format": "hh-sol-artifact-1",
  "contractName": "GameCharacter",
  "sourceName": "contracts/GameCharacter.sol",
  "abi": [
    {
      "inputs": [
        {
          "internalType": "address",
          "name": "gameItemContractAddress",
          "type": "address"
        }
      ],
      "stateMutability": "nonpayable",
      "type": "constructor"
    },
    {
      "anonymous": false,
      "inputs": [
        {
          "indexed": true,
          "internalType": "address",
          "name": "owner",
          "type": "address"
        },
        {
          "indexed": true,
          "internalType": "address",
          "name": "approved",
          "type": "address"
        },
        {
          "indexed": true,
          "internalType": "uint256",
          "name": "tokenId",
          "type": "uint256"
        }
      ],
      "name": "Approval",
      "type": "event"
    },
    {
      "anonymous": false,
      "inputs": [
        {
          "indexed": true,
          "internalType": "address",
          "name": "owner",
          "type": "address"
        },
        {
          "indexed": true,
          "internalType": "address",
          "name": "operator",
          "type": "address"
        },
        {
          "indexed": false,
          "internalType": "bool",
          "name": "approved",
          "type": "bool"
        }
      ],
      "name": "ApprovalForAll",
      "type": "event"
    },
    {
      "anonymous": false,
      "inputs": [
        {
          "indexed": false,
          "internalType": "address",
          "name": "owner",
          "type": "address"
        },
        {
          "indexed": false,
          "internalType": "uint256",
          "name": "oldTokenId",
          "type": "uint256"
        },
        {
          "indexed": false,
          "internalType": "uint256",
          "name": "newTokenId",
          "type": "uint256"
        }
      ],
      "name": "GlassesChanged",
      "type": "event"
    },
    {
      "anonymous": false,
      "inputs": [
        {
          "indexed": false,
          "internalType": "address",
          "name": "owner",
          "type": "address"
        },
        {
          "indexed": false,
          "internalType": "uint256",
          "name": "oldTokenId",
          "type": "uint256"
        },
        {
          "indexed": false,
          "internalType": "uint256",
          "name": "newTokenId",
          "type": "uint256"
        }
      ],
      "name": "HatChanged",
      "type": "event"
    },
    {
      "anonymous": false,
      "inputs": [
        {
          "indexed": true,
          "internalType": "bytes32",
          "name": "role",
          "type": "bytes32"
        },
        {
          "indexed": true,
          "internalType": "bytes32",
          "name": "previousAdminRole",
          "type": "bytes32"
        },
        {
          "indexed": true,
          "internalType": "bytes32",
          "name": "newAdminRole",
          "type": "bytes32"
        }
      ],
      "name": "RoleAdminChanged",
      "type": "event"
    },
    {
      "anonymous": false,
      "inputs": [
        {
          "indexed": true,
          "internalType": "bytes32",
          "name": "role",
          "type": "bytes32"
        },
        {
          "indexed": true,
          "internalType": "address",
          "name": "account",
          "type": "address"
        },
        {
          "indexed": true,
          "internalType": "address",
          "name": "sender",
          "type": "address"
        }
      ],
      "name": "RoleGranted",
      "type": "event"
    },
    {
      "anonymous": false,
      "inputs": [
        {
          "indexed": true,
          "internalType": "bytes32",
          "name": "role",
          "type": "bytes32"
        },
        {
          "indexed": true,
          "internalType": "address",
          "name": "account",
          "type": "address"
        },
        {
          "indexed": true,
          "internalType": "address",
          "name": "sender",
          "type": "address"
        }
      ],
      "name": "RoleRevoked",
      "type": "event"
    },
    {
      "anonymous": false,
      "inputs": [
        {
          "indexed": false,
          "internalType": "address",
          "name": "owner",
          "type": "address"
        },
        {
          "indexed": false,
          "internalType": "uint256",
          "name": "oldTokenId",
          "type": "uint256"
        },
        {
          "indexed": false,
          "internalType": "uint256",
          "name": "newTokenId",
          "type": "uint256"
        }
      ],
      "name": "ShoesChanged",
      "type": "event"
    },
    {
      "anonymous": false,
      "inputs": [
        {
          "indexed": true,
          "internalType": "address",
          "name": "from",
          "type": "address"
        },
        {
          "indexed": true,
          "internalType": "address",
          "name": "to",
          "type": "address"
        },
        {
          "indexed": true,
          "internalType": "uint256",
          "name": "tokenId",
          "type": "uint256"
        }
      ],
      "name": "Transfer",
      "type": "event"
    },
    {
      "inputs": [],
      "name": "DEFAULT_ADMIN_ROLE",
      "outputs": [
        {
          "internalType": "bytes32",
          "name": "",
          "type": "bytes32"
        }
      ],
      "stateMutability": "view",
      "type": "function"
    },
    {
      "inputs": [],
      "name": "MINTER_ROLE",
      "outputs": [
        {
          "internalType": "bytes32",
          "name": "",
          "type": "bytes32"
        }
      ],
      "stateMutability": "view",
      "type": "function"
    },
    {
      "inputs": [
        {
          "internalType": "address",
          "name": "to",
          "type": "address"
        },
        {
          "internalType": "uint256",
          "name": "tokenId",
          "type": "uint256"
        }
      ],
      "name": "approve",
      "outputs": [],
      "stateMutability": "nonpayable",
      "type": "function"
    },
    {
      "inputs": [
        {
          "internalType": "address",
          "name": "owner",
          "type": "address"
        }
      ],
      "name": "balanceOf",
      "outputs": [
        {
          "internalType": "uint256",
          "name": "",
          "type": "uint256"
        }
      ],
      "stateMutability": "view",
      "type": "function"
    },
    {
      "inputs": [
        {
          "internalType": "uint256",
          "name": "tokenId",
          "type": "uint256"
        }
      ],
      "name": "burn",
      "outputs": [],
      "stateMutability": "nonpayable",
      "type": "function"
    },
    {
      "inputs": [
        {
          "internalType": "uint256",
          "name": "tokenId",
          "type": "uint256"
        }
      ],
      "name": "changeGlasses",
      "outputs": [],
      "stateMutability": "nonpayable",
      "type": "function"
    },
    {
      "inputs": [
        {
          "internalType": "uint256",
          "name": "tokenId",
          "type": "uint256"
        }
      ],
      "name": "changeHat",
      "outputs": [],
      "stateMutability": "nonpayable",
      "type": "function"
    },
    {
      "inputs": [
        {
          "internalType": "uint256",
          "name": "tokenId",
          "type": "uint256"
        }
      ],
      "name": "changeShoes",
      "outputs": [],
      "stateMutability": "nonpayable",
      "type": "function"
    },
    {
      "inputs": [
        {
          "internalType": "uint256",
          "name": "tokenId",
          "type": "uint256"
        }
      ],
      "name": "getApproved",
      "outputs": [
        {
          "internalType": "address",
          "name": "",
          "type": "address"
        }
      ],
      "stateMutability": "view",
      "type": "function"
    },
    {
      "inputs": [
        {
          "internalType": "address",
          "name": "owner",
          "type": "address"
        }
      ],
      "name": "getGlasses",
      "outputs": [
        {
          "internalType": "uint256",
          "name": "",
          "type": "uint256"
        }
      ],
      "stateMutability": "view",
      "type": "function"
    },
    {
      "inputs": [
        {
          "internalType": "address",
          "name": "owner",
          "type": "address"
        }
      ],
      "name": "getHat",
      "outputs": [
        {
          "internalType": "uint256",
          "name": "",
          "type": "uint256"
        }
      ],
      "stateMutability": "view",
      "type": "function"
    },
    {
      "inputs": [
        {
          "internalType": "bytes32",
          "name": "role",
          "type": "bytes32"
        }
      ],
      "name": "getRoleAdmin",
      "outputs": [
        {
          "internalType": "bytes32",
          "name": "",
          "type": "bytes32"
        }
      ],
      "stateMutability": "view",
      "type": "function"
    },
    {
      "inputs": [
        {
          "internalType": "address",
          "name": "owner",
          "type": "address"
        }
      ],
      "name": "getShoes",
      "outputs": [
        {
          "internalType": "uint256",
          "name": "",
          "type": "uint256"
        }
      ],
      "stateMutability": "view",
      "type": "function"
    },
    {
      "inputs": [
        {
          "internalType": "bytes32",
          "name": "role",
          "type": "bytes32"
        },
        {
          "internalType": "address",
          "name": "account",
          "type": "address"
        }
      ],
      "name": "grantRole",
      "outputs": [],
      "stateMutability": "nonpayable",
      "type": "function"
    },
    {
      "inputs": [
        {
          "internalType": "bytes32",
          "name": "role",
          "type": "bytes32"
        },
        {
          "internalType": "address",
          "name": "account",
          "type": "address"
        }
      ],
      "name": "hasRole",
      "outputs": [
        {
          "internalType": "bool",
          "name": "",
          "type": "bool"
        }
      ],
      "stateMutability": "view",
      "type": "function"
    },
    {
      "inputs": [
        {
          "internalType": "address",
          "name": "owner",
          "type": "address"
        },
        {
          "internalType": "address",
          "name": "operator",
          "type": "address"
        }
      ],
      "name": "isApprovedForAll",
      "outputs": [
        {
          "internalType": "bool",
          "name": "",
          "type": "bool"
        }
      ],
      "stateMutability": "view",
      "type": "function"
    },
    {
      "inputs": [],
      "name": "name",
      "outputs": [
        {
          "internalType": "string",
          "name": "",
          "type": "string"
        }
      ],
      "stateMutability": "view",
      "type": "function"
    },
    {
      "inputs": [
        {
          "internalType": "address",
          "name": "",
          "type": "address"
        },
        {
          "internalType": "address",
          "name": "",
          "type": "address"
        },
        {
          "internalType": "uint256[]",
          "name": "",
          "type": "uint256[]"
        },
        {
          "internalType": "uint256[]",
          "name": "",
          "type": "uint256[]"
        },
        {
          "internalType": "bytes",
          "name": "",
          "type": "bytes"
        }
      ],
      "name": "onERC1155BatchReceived",
      "outputs": [
        {
          "internalType": "bytes4",
          "name": "",
          "type": "bytes4"
        }
      ],
      "stateMutability": "nonpayable",
      "type": "function"
    },
    {
      "inputs": [
        {
          "internalType": "address",
          "name": "",
          "type": "address"
        },
        {
          "internalType": "address",
          "name": "",
          "type": "address"
        },
        {
          "internalType": "uint256",
          "name": "",
          "type": "uint256"
        },
        {
          "internalType": "uint256",
          "name": "",
          "type": "uint256"
        },
        {
          "internalType": "bytes",
          "name": "",
          "type": "bytes"
        }
      ],
      "name": "onERC1155Received",
      "outputs": [
        {
          "internalType": "bytes4",
          "name": "",
          "type": "bytes4"
        }
      ],
      "stateMutability": "nonpayable",
      "type": "function"
    },
    {
      "inputs": [
        {
          "internalType": "uint256",
          "name": "tokenId",
          "type": "uint256"
        }
      ],
      "name": "ownerOf",
      "outputs": [
        {
          "internalType": "address",
          "name": "",
          "type": "address"
        }
      ],
      "stateMutability": "view",
      "type": "function"
    },
    {
      "inputs": [
        {
          "internalType": "bytes32",
          "name": "role",
          "type": "bytes32"
        },
        {
          "internalType": "address",
          "name": "account",
          "type": "address"
        }
      ],
      "name": "renounceRole",
      "outputs": [],
      "stateMutability": "nonpayable",
      "type": "function"
    },
    {
      "inputs": [
        {
          "internalType": "bytes32",
          "name": "role",
          "type": "bytes32"
        },
        {
          "internalType": "address",
          "name": "account",
          "type": "address"
        }
      ],
      "name": "revokeRole",
      "outputs": [],
      "stateMutability": "nonpayable",
      "type": "function"
    },
    {
      "inputs": [
        {
          "internalType": "address",
          "name": "to",
          "type": "address"
        }
      ],
      "name": "safeMint",
      "outputs": [],
      "stateMutability": "nonpayable",
      "type": "function"
    },
    {
      "inputs": [
        {
          "internalType": "address",
          "name": "from",
          "type": "address"
        },
        {
          "internalType": "address",
          "name": "to",
          "type": "address"
        },
        {
          "internalType": "uint256",
          "name": "tokenId",
          "type": "uint256"
        }
      ],
      "name": "safeTransferFrom",
      "outputs": [],
      "stateMutability": "nonpayable",
      "type": "function"
    },
    {
      "inputs": [
        {
          "internalType": "address",
          "name": "from",
          "type": "address"
        },
        {
          "internalType": "address",
          "name": "to",
          "type": "address"
        },
        {
          "internalType": "uint256",
          "name": "tokenId",
          "type": "uint256"
        },
        {
          "internalType": "bytes",
          "name": "_data",
          "type": "bytes"
        }
      ],
      "name": "safeTransferFrom",
      "outputs": [],
      "stateMutability": "nonpayable",
      "type": "function"
    },
    {
      "inputs": [
        {
          "internalType": "address",
          "name": "operator",
          "type": "address"
        },
        {
          "internalType": "bool",
          "name": "approved",
          "type": "bool"
        }
      ],
      "name": "setApprovalForAll",
      "outputs": [],
      "stateMutability": "nonpayable",
      "type": "function"
    },
    {
      "inputs": [
        {
          "internalType": "bytes4",
          "name": "interfaceId",
          "type": "bytes4"
        }
      ],
      "name": "supportsInterface",
      "outputs": [
        {
          "internalType": "bool",
          "name": "",
          "type": "bool"
        }
      ],
      "stateMutability": "view",
      "type": "function"
    },
    {
      "inputs": [],
      "name": "symbol",
      "outputs": [
        {
          "internalType": "string",
          "name": "",
          "type": "string"
        }
      ],
      "stateMutability": "view",
      "type": "function"
    },
    {
      "inputs": [
        {
          "internalType": "uint256",
          "name": "index",
          "type": "uint256"
        }
      ],
      "name": "tokenByIndex",
      "outputs": [
        {
          "internalType": "uint256",
          "name": "",
          "type": "uint256"
        }
      ],
      "stateMutability": "view",
      "type": "function"
    },
    {
      "inputs": [
        {
          "internalType": "address",
          "name": "owner",
          "type": "address"
        },
        {
          "internalType": "uint256",
          "name": "index",
          "type": "uint256"
        }
      ],
      "name": "tokenOfOwnerByIndex",
      "outputs": [
        {
          "internalType": "uint256",
          "name": "",
          "type": "uint256"
        }
      ],
      "stateMutability": "view",
      "type": "function"
    },
    {
      "inputs": [
        {
          "internalType": "uint256",
          "name": "tokenId",
          "type": "uint256"
        }
      ],
      "name": "tokenURI",
      "outputs": [
        {
          "internalType": "string",
          "name": "",
          "type": "string"
        }
      ],
      "stateMutability": "view",
      "type": "function"
    },
    {
      "inputs": [],
      "name": "totalSupply",
      "outputs": [
        {
          "internalType": "uint256",
          "name": "",
          "type": "uint256"
        }
      ],
      "stateMutability": "view",
      "type": "function"
    },
    {
      "inputs": [
        {
          "internalType": "address",
          "name": "from",
          "type": "address"
        },
        {
          "internalType": "address",
          "name": "to",
          "type": "address"
        },
        {
          "internalType": "uint256",
          "name": "tokenId",
          "type": "uint256"
        }
      ],
      "name": "transferFrom",
      "outputs": [],
      "stateMutability": "nonpayable",
      "type": "function"
    }
  ],
  "bytecode": "0x60806040523480156200001157600080fd5b5060405162002b3638038062002b3683398101604081905262000034916200024f565b604080518082018252600d81526c23b0b6b2a1b430b930b1ba32b960991b60208083019182528351808501909452600984526821a420a920a1aa22a960b91b9084015281519192916200008a91600091620001a9565b508051620000a0906001906020840190620001a9565b50620000b29150600090503362000104565b620000de7f9f2df0fed2c77648de5860a4cc508cd0818c85b8b8a1ab4ceeef8d981c8956a63362000104565b600b80546001600160a01b0319166001600160a01b0392909216919091179055620002be565b6000828152600a602090815260408083206001600160a01b038516845290915290205460ff16620001a5576000828152600a602090815260408083206001600160a01b03851684529091529020805460ff19166001179055620001643390565b6001600160a01b0316816001600160a01b0316837f2f8788117e7eff1d82e926ec794901d17c78024a50270940304540a733656f0d60405160405180910390a45b5050565b828054620001b79062000281565b90600052602060002090601f016020900481019282620001db576000855562000226565b82601f10620001f657805160ff191683800117855562000226565b8280016001018555821562000226579182015b828111156200022657825182559160200191906001019062000209565b506200023492915062000238565b5090565b5b8082111562000234576000815560010162000239565b6000602082840312156200026257600080fd5b81516001600160a01b03811681146200027a57600080fd5b9392505050565b600181811c908216806200029657607f821691505b60208210811415620002b857634e487b7160e01b600052602260045260246000fd5b50919050565b61286880620002ce6000396000f3fe608060405234801561001057600080fd5b50600436106101fb5760003560e01c8063516740e41161011a578063a313b2ef116100ad578063c87b56dd1161007c578063c87b56dd146104a5578063d5391393146104b8578063d547741f146104df578063e985e9c5146104f2578063f23a6e611461052e57600080fd5b8063a313b2ef1461041e578063b642bd9914610431578063b88d4fde1461045a578063bc197c811461046d57600080fd5b806391d14854116100e957806391d14854146103e857806395d89b41146103fb578063a217fddf14610403578063a22cb4651461040b57600080fd5b8063516740e41461038657806351e47149146103af5780636352211e146103c257806370a08231146103d557600080fd5b80632f2ba8141161019257806340d097c31161016157806340d097c31461033a57806342842e0e1461034d57806342966c68146103605780634f6ccce71461037357600080fd5b80632f2ba814146102ee5780632f2ff15d146103015780632f745c591461031457806336568abe1461032757600080fd5b806318160ddd116101ce57806318160ddd1461027d57806323b872dd1461028f578063248585b4146102a2578063248a9ca3146102cb57600080fd5b806301ffc9a71461020057806306fdde0314610228578063081812fc1461023d578063095ea7b314610268575b600080fd5b61021361020e366004612439565b61054d565b60405190151581526020015b60405180910390f35b61023061055e565b60405161021f91906125b8565b61025061024b3660046123fd565b6105f0565b6040516001600160a01b03909116815260200161021f565b61027b6102763660046123d3565b61068a565b005b6008545b60405190815260200161021f565b61027b61029d36600461228e565b6107a0565b6102816102b0366004612196565b6001600160a01b03166000908152600e602052604090205490565b6102816102d93660046123fd565b6000908152600a602052604090206001015490565b61027b6102fc3660046123fd565b6107d2565b61027b61030f366004612416565b61095f565b6102816103223660046123d3565b610985565b61027b610335366004612416565b610a1b565b61027b610348366004612196565b610a99565b61027b61035b36600461228e565b610ae9565b61027b61036e3660046123fd565b610b04565b6102816103813660046123fd565b610b7e565b610281610394366004612196565b6001600160a01b03166000908152600d602052604090205490565b61027b6103bd3660046123fd565b610c11565b6102506103d03660046123fd565b610d98565b6102816103e3366004612196565b610e0f565b6102136103f6366004612416565b610e96565b610230610ec1565b610281600081565b61027b610419366004612397565b610ed0565b61027b61042c3660046123fd565b610edb565b61028161043f366004612196565b6001600160a01b03166000908152600c602052604090205490565b61027b6104683660046122ca565b611060565b61048c61047b3660046121e4565b63bc197c8160e01b95945050505050565b6040516001600160e01b0319909116815260200161021f565b6102306104b33660046123fd565b611098565b6102817f9f2df0fed2c77648de5860a4cc508cd0818c85b8b8a1ab4ceeef8d981c8956a681565b61027b6104ed366004612416565b611180565b6102136105003660046121b1565b6001600160a01b03918216600090815260056020908152604080832093909416825291909152205460ff1690565b61048c61053c366004612332565b63f23a6e6160e01b95945050505050565b6000610558826111a6565b92915050565b60606000805461056d90612744565b80601f016020809104026020016040519081016040528092919081815260200182805461059990612744565b80156105e65780601f106105bb576101008083540402835291602001916105e6565b820191906000526020600020905b8154815290600101906020018083116105c957829003601f168201915b5050505050905090565b6000818152600260205260408120546001600160a01b031661066e5760405162461bcd60e51b815260206004820152602c60248201527f4552433732313a20617070726f76656420717565727920666f72206e6f6e657860448201526b34b9ba32b73a103a37b5b2b760a11b60648201526084015b60405180910390fd5b506000908152600460205260409020546001600160a01b031690565b600061069582610d98565b9050806001600160a01b0316836001600160a01b031614156107035760405162461bcd60e51b815260206004820152602160248201527f4552433732313a20617070726f76616c20746f2063757272656e74206f776e656044820152603960f91b6064820152608401610665565b336001600160a01b038216148061071f575061071f8133610500565b6107915760405162461bcd60e51b815260206004820152603860248201527f4552433732313a20617070726f76652063616c6c6572206973206e6f74206f7760448201527f6e6572206e6f7220617070726f76656420666f7220616c6c00000000000000006064820152608401610665565b61079b83836111cb565b505050565b6107ab335b82611239565b6107c75760405162461bcd60e51b81526004016106659061261d565b61079b838383611330565b6107db816114db565b61081e5760405162461bcd60e51b8152602060048201526014602482015273125d195b481cda1bdd5b190818994818481a185d60621b6044820152606401610665565b336000908152600c6020526040902054801561089e57600b54604051637921219560e11b81526001600160a01b039091169063f242432a9061086b90309033908690600190600401612580565b600060405180830381600087803b15801561088557600080fd5b505af1158015610899573d6000803e3d6000fd5b505050505b600b54604051637921219560e11b81526001600160a01b039091169063f242432a906108d590339030908790600190600401612580565b600060405180830381600087803b1580156108ef57600080fd5b505af1158015610903573d6000803e3d6000fd5b5050336000818152600c60209081526040918290208790558151928352820185905281018590527f356f094000bcd3968ad51bf92c9d115ed7294626dea8ae4cc5b24273702e1113925060600190505b60405180910390a15050565b6000828152600a602052604090206001015461097b813361150d565b61079b8383611571565b600061099083610e0f565b82106109f25760405162461bcd60e51b815260206004820152602b60248201527f455243373231456e756d657261626c653a206f776e657220696e646578206f7560448201526a74206f6620626f756e647360a81b6064820152608401610665565b506001600160a01b03919091166000908152600660209081526040808320938352929052205490565b6001600160a01b0381163314610a8b5760405162461bcd60e51b815260206004820152602f60248201527f416363657373436f6e74726f6c3a2063616e206f6e6c792072656e6f756e636560448201526e103937b632b9903337b91039b2b63360891b6064820152608401610665565b610a9582826115f7565b5050565b7f9f2df0fed2c77648de5860a4cc508cd0818c85b8b8a1ab4ceeef8d981c8956a6610ac4813361150d565b6000610acf600f5490565b9050610adf600f80546001019055565b61079b838261165e565b61079b83838360405180602001604052806000815250611060565b610b0d336107a5565b610b725760405162461bcd60e51b815260206004820152603060248201527f4552433732314275726e61626c653a2063616c6c6572206973206e6f74206f7760448201526f1b995c881b9bdc88185c1c1c9bdd995960821b6064820152608401610665565b610b7b81611678565b50565b6000610b8960085490565b8210610bec5760405162461bcd60e51b815260206004820152602c60248201527f455243373231456e756d657261626c653a20676c6f62616c20696e646578206f60448201526b7574206f6620626f756e647360a01b6064820152608401610665565b60088281548110610bff57610bff6127f0565b90600052602060002001549050919050565b610c1a8161171f565b610c5f5760405162461bcd60e51b81526020600482015260166024820152754974656d2073686f756c6420626520676c617373657360501b6044820152606401610665565b336000908152600e60205260409020548015610cdf57600b54604051637921219560e11b81526001600160a01b039091169063f242432a90610cac90309033908690600190600401612580565b600060405180830381600087803b158015610cc657600080fd5b505af1158015610cda573d6000803e3d6000fd5b505050505b600b54604051637921219560e11b81526001600160a01b039091169063f242432a90610d1690339030908790600190600401612580565b600060405180830381600087803b158015610d3057600080fd5b505af1158015610d44573d6000803e3d6000fd5b5050336000818152600e60209081526040918290208790558151928352820185905281018590527fce174c9fca220206a59a19dfc3c58549a48680727bec6bf933e0347ed4b1de6792506060019050610953565b6000818152600260205260408120546001600160a01b0316806105585760405162461bcd60e51b815260206004820152602960248201527f4552433732313a206f776e657220717565727920666f72206e6f6e657869737460448201526832b73a103a37b5b2b760b91b6064820152608401610665565b60006001600160a01b038216610e7a5760405162461bcd60e51b815260206004820152602a60248201527f4552433732313a2062616c616e636520717565727920666f7220746865207a65604482015269726f206164647265737360b01b6064820152608401610665565b506001600160a01b031660009081526003602052604090205490565b6000918252600a602090815260408084206001600160a01b0393909316845291905290205460ff1690565b60606001805461056d90612744565b610a95338383611746565b610ee481611815565b610f275760405162461bcd60e51b81526020600482015260146024820152734974656d2073686f756c642062652073686f657360601b6044820152606401610665565b336000908152600d60205260409020548015610fa757600b54604051637921219560e11b81526001600160a01b039091169063f242432a90610f7490309033908690600190600401612580565b600060405180830381600087803b158015610f8e57600080fd5b505af1158015610fa2573d6000803e3d6000fd5b505050505b600b54604051637921219560e11b81526001600160a01b039091169063f242432a90610fde90339030908790600190600401612580565b600060405180830381600087803b158015610ff857600080fd5b505af115801561100c573d6000803e3d6000fd5b5050336000818152600d60209081526040918290208790558151928352820185905281018590527ff21418bcdcfd1f6d2ce2830044e179769f0bd1ae21542d2cd77a5512e5ba8d6192506060019050610953565b61106a3383611239565b6110865760405162461bcd60e51b81526004016106659061261d565b6110928484848461183c565b50505050565b6000818152600260205260409020546060906001600160a01b03166111175760405162461bcd60e51b815260206004820152602f60248201527f4552433732314d657461646174613a2055524920717565727920666f72206e6f60448201526e3732bc34b9ba32b73a103a37b5b2b760891b6064820152608401610665565b600061112e60408051602081019091526000815290565b9050600081511161114e5760405180602001604052806000815250611179565b806111588461186f565b60405160200161116992919061249f565b6040516020818303038152906040525b9392505050565b6000828152600a602052604090206001015461119c813361150d565b61079b83836115f7565b60006001600160e01b03198216630271189760e51b148061055857506105588261196d565b600081815260046020526040902080546001600160a01b0319166001600160a01b038416908117909155819061120082610d98565b6001600160a01b03167f8c5be1e5ebec7d5bd14f71427d1e84f3dd0314c0f7b2291e5b200ac8c7c3b92560405160405180910390a45050565b6000818152600260205260408120546001600160a01b03166112b25760405162461bcd60e51b815260206004820152602c60248201527f4552433732313a206f70657261746f7220717565727920666f72206e6f6e657860448201526b34b9ba32b73a103a37b5b2b760a11b6064820152608401610665565b60006112bd83610d98565b9050806001600160a01b0316846001600160a01b031614806112f85750836001600160a01b03166112ed846105f0565b6001600160a01b0316145b8061132857506001600160a01b0380821660009081526005602090815260408083209388168352929052205460ff165b949350505050565b826001600160a01b031661134382610d98565b6001600160a01b0316146113ab5760405162461bcd60e51b815260206004820152602960248201527f4552433732313a207472616e73666572206f6620746f6b656e2074686174206960448201526839903737ba1037bbb760b91b6064820152608401610665565b6001600160a01b03821661140d5760405162461bcd60e51b8152602060048201526024808201527f4552433732313a207472616e7366657220746f20746865207a65726f206164646044820152637265737360e01b6064820152608401610665565b611418838383611992565b6114236000826111cb565b6001600160a01b038316600090815260036020526040812080546001929061144c9084906126ea565b90915550506001600160a01b038216600090815260036020526040812080546001929061147a90849061269f565b909155505060008181526002602052604080822080546001600160a01b0319166001600160a01b0386811691821790925591518493918716917fddf252ad1be2c89b69c2b068fc378daa952ba7f163c4a11628f55a4df523b3ef91a4505050565b60006001600160f11b0382111580156114f85750600160e81b8210155b1561150557506001919050565b506000919050565b6115178282610e96565b610a955761152f816001600160a01b0316601461199d565b61153a83602061199d565b60405160200161154b9291906124ce565b60408051601f198184030181529082905262461bcd60e51b8252610665916004016125b8565b61157b8282610e96565b610a95576000828152600a602090815260408083206001600160a01b03851684529091529020805460ff191660011790556115b33390565b6001600160a01b0316816001600160a01b0316837f2f8788117e7eff1d82e926ec794901d17c78024a50270940304540a733656f0d60405160405180910390a45050565b6116018282610e96565b15610a95576000828152600a602090815260408083206001600160a01b0385168085529252808320805460ff1916905551339285917ff6391f5c32d9c69d2a47ea670b442974b53935d1edc7fd64eb21e047a839171b9190a45050565b610a95828260405180602001604052806000815250611b39565b600061168382610d98565b905061169181600084611992565b61169c6000836111cb565b6001600160a01b03811660009081526003602052604081208054600192906116c59084906126ea565b909155505060008281526002602052604080822080546001600160a01b0319169055518391906001600160a01b038416907fddf252ad1be2c89b69c2b068fc378daa952ba7f163c4a11628f55a4df523b3ef908390a45050565b60006001600160f21b0382111580156114f85750600360e81b821061150557506001919050565b816001600160a01b0316836001600160a01b031614156117a85760405162461bcd60e51b815260206004820152601960248201527f4552433732313a20617070726f766520746f2063616c6c6572000000000000006044820152606401610665565b6001600160a01b03838116600081815260056020908152604080832094871680845294825291829020805460ff191686151590811790915591519182527f17307eab39ab6107e8899845ad3d59bd9653f200f220920489ca2b5937696c31910160405180910390a3505050565b60006001600360f01b0382111580156114f85750600160e91b821061150557506001919050565b611847848484611330565b61185384848484611b6c565b6110925760405162461bcd60e51b8152600401610665906125cb565b6060816118935750506040805180820190915260018152600360fc1b602082015290565b8160005b81156118bd57806118a78161277f565b91506118b69050600a836126b7565b9150611897565b60008167ffffffffffffffff8111156118d8576118d8612806565b6040519080825280601f01601f191660200182016040528015611902576020820181803683370190505b5090505b8415611328576119176001836126ea565b9150611924600a8661279a565b61192f90603061269f565b60f81b818381518110611944576119446127f0565b60200101906001600160f81b031916908160001a905350611966600a866126b7565b9450611906565b60006001600160e01b03198216637965db0b60e01b1480610558575061055882611c79565b61079b838383611c9e565b606060006119ac8360026126cb565b6119b790600261269f565b67ffffffffffffffff8111156119cf576119cf612806565b6040519080825280601f01601f1916602001820160405280156119f9576020820181803683370190505b509050600360fc1b81600081518110611a1457611a146127f0565b60200101906001600160f81b031916908160001a905350600f60fb1b81600181518110611a4357611a436127f0565b60200101906001600160f81b031916908160001a9053506000611a678460026126cb565b611a7290600161269f565b90505b6001811115611aea576f181899199a1a9b1b9c1cb0b131b232b360811b85600f1660108110611aa657611aa66127f0565b1a60f81b828281518110611abc57611abc6127f0565b60200101906001600160f81b031916908160001a90535060049490941c93611ae38161272d565b9050611a75565b5083156111795760405162461bcd60e51b815260206004820181905260248201527f537472696e67733a20686578206c656e67746820696e73756666696369656e746044820152606401610665565b611b438383611d56565b611b506000848484611b6c565b61079b5760405162461bcd60e51b8152600401610665906125cb565b60006001600160a01b0384163b15611c6e57604051630a85bd0160e11b81526001600160a01b0385169063150b7a0290611bb0903390899088908890600401612543565b602060405180830381600087803b158015611bca57600080fd5b505af1925050508015611bfa575060408051601f3d908101601f19168201909252611bf791810190612456565b60015b611c54573d808015611c28576040519150601f19603f3d011682016040523d82523d6000602084013e611c2d565b606091505b508051611c4c5760405162461bcd60e51b8152600401610665906125cb565b805181602001fd5b6001600160e01b031916630a85bd0160e11b149050611328565b506001949350505050565b60006001600160e01b0319821663780e9d6360e01b1480610558575061055882611ea4565b6001600160a01b038316611cf957611cf481600880546000838152600960205260408120829055600182018355919091527ff3f7a9fe364faab93b216da50a3214154f22a0a2b415b23a84c8169e8b636ee30155565b611d1c565b816001600160a01b0316836001600160a01b031614611d1c57611d1c8382611ef4565b6001600160a01b038216611d335761079b81611f91565b826001600160a01b0316826001600160a01b03161461079b5761079b8282612040565b6001600160a01b038216611dac5760405162461bcd60e51b815260206004820181905260248201527f4552433732313a206d696e7420746f20746865207a65726f20616464726573736044820152606401610665565b6000818152600260205260409020546001600160a01b031615611e115760405162461bcd60e51b815260206004820152601c60248201527f4552433732313a20746f6b656e20616c7265616479206d696e746564000000006044820152606401610665565b611e1d60008383611992565b6001600160a01b0382166000908152600360205260408120805460019290611e4690849061269f565b909155505060008181526002602052604080822080546001600160a01b0319166001600160a01b03861690811790915590518392907fddf252ad1be2c89b69c2b068fc378daa952ba7f163c4a11628f55a4df523b3ef908290a45050565b60006001600160e01b031982166380ac58cd60e01b1480611ed557506001600160e01b03198216635b5e139f60e01b145b8061055857506301ffc9a760e01b6001600160e01b0319831614610558565b60006001611f0184610e0f565b611f0b91906126ea565b600083815260076020526040902054909150808214611f5e576001600160a01b03841660009081526006602090815260408083208584528252808320548484528184208190558352600790915290208190555b5060009182526007602090815260408084208490556001600160a01b039094168352600681528383209183525290812055565b600854600090611fa3906001906126ea565b60008381526009602052604081205460088054939450909284908110611fcb57611fcb6127f0565b906000526020600020015490508060088381548110611fec57611fec6127f0565b6000918252602080832090910192909255828152600990915260408082208490558582528120556008805480612024576120246127da565b6001900381819060005260206000200160009055905550505050565b600061204b83610e0f565b6001600160a01b039093166000908152600660209081526040808320868452825280832085905593825260079052919091209190915550565b80356001600160a01b038116811461209b57600080fd5b919050565b600082601f8301126120b157600080fd5b8135602067ffffffffffffffff8211156120cd576120cd612806565b8160051b6120dc82820161266e565b8381528281019086840183880185018910156120f757600080fd5b600093505b8584101561211a5780358352600193909301929184019184016120fc565b50979650505050505050565b600082601f83011261213757600080fd5b813567ffffffffffffffff81111561215157612151612806565b612164601f8201601f191660200161266e565b81815284602083860101111561217957600080fd5b816020850160208301376000918101602001919091529392505050565b6000602082840312156121a857600080fd5b61117982612084565b600080604083850312156121c457600080fd5b6121cd83612084565b91506121db60208401612084565b90509250929050565b600080600080600060a086880312156121fc57600080fd5b61220586612084565b945061221360208701612084565b9350604086013567ffffffffffffffff8082111561223057600080fd5b61223c89838a016120a0565b9450606088013591508082111561225257600080fd5b61225e89838a016120a0565b9350608088013591508082111561227457600080fd5b5061228188828901612126565b9150509295509295909350565b6000806000606084860312156122a357600080fd5b6122ac84612084565b92506122ba60208501612084565b9150604084013590509250925092565b600080600080608085870312156122e057600080fd5b6122e985612084565b93506122f760208601612084565b925060408501359150606085013567ffffffffffffffff81111561231a57600080fd5b61232687828801612126565b91505092959194509250565b600080600080600060a0868803121561234a57600080fd5b61235386612084565b945061236160208701612084565b93506040860135925060608601359150608086013567ffffffffffffffff81111561238b57600080fd5b61228188828901612126565b600080604083850312156123aa57600080fd5b6123b383612084565b9150602083013580151581146123c857600080fd5b809150509250929050565b600080604083850312156123e657600080fd5b6123ef83612084565b946020939093013593505050565b60006020828403121561240f57600080fd5b5035919050565b6000806040838503121561242957600080fd5b823591506121db60208401612084565b60006020828403121561244b57600080fd5b81356111798161281c565b60006020828403121561246857600080fd5b81516111798161281c565b6000815180845261248b816020860160208601612701565b601f01601f19169290920160200192915050565b600083516124b1818460208801612701565b8351908301906124c5818360208801612701565b01949350505050565b7f416363657373436f6e74726f6c3a206163636f756e7420000000000000000000815260008351612506816017850160208801612701565b7001034b99036b4b9b9b4b733903937b6329607d1b6017918401918201528351612537816028840160208801612701565b01602801949350505050565b6001600160a01b038581168252841660208201526040810183905260806060820181905260009061257690830184612473565b9695505050505050565b6001600160a01b0394851681529290931660208301526040820152606081019190915260a06080820181905260009082015260c00190565b6020815260006111796020830184612473565b60208082526032908201527f4552433732313a207472616e7366657220746f206e6f6e20455243373231526560408201527131b2b4bb32b91034b6b83632b6b2b73a32b960711b606082015260800190565b60208082526031908201527f4552433732313a207472616e736665722063616c6c6572206973206e6f74206f6040820152701ddb995c881b9bdc88185c1c1c9bdd9959607a1b606082015260800190565b604051601f8201601f1916810167ffffffffffffffff8111828210171561269757612697612806565b604052919050565b600082198211156126b2576126b26127ae565b500190565b6000826126c6576126c66127c4565b500490565b60008160001904831182151516156126e5576126e56127ae565b500290565b6000828210156126fc576126fc6127ae565b500390565b60005b8381101561271c578181015183820152602001612704565b838111156110925750506000910152565b60008161273c5761273c6127ae565b506000190190565b600181811c9082168061275857607f821691505b6020821081141561277957634e487b7160e01b600052602260045260246000fd5b50919050565b6000600019821415612793576127936127ae565b5060010190565b6000826127a9576127a96127c4565b500690565b634e487b7160e01b600052601160045260246000fd5b634e487b7160e01b600052601260045260246000fd5b634e487b7160e01b600052603160045260246000fd5b634e487b7160e01b600052603260045260246000fd5b634e487b7160e01b600052604160045260246000fd5b6001600160e01b031981168114610b7b57600080fdfea2646970667358221220563eed7c77aca0441ddfbc0b85436f2b0e382a64080429dee0e40851e7d0fd3c64736f6c63430008070033",
  "linkReferences": {},
  "deployedLinkReferences": {}
}