{
  "_format": "hh-sol-artifact-1",
  "contractName": "GameItem",
  "sourceName": "contracts/GameItem.sol",
  "abi": [
    {
      "inputs": [],
      "stateMutability": "nonpayable",
      "type": "constructor"
    },
    {
      "anonymous": false,
      "inputs": [
        {
          "indexed": true,
          "internalType": "address",
          "name": "account",
          "type": "address"
        },
        {
          "indexed": true,
          "internalType": "address",
          "name": "operator",
          "type": "address"
        },
        {
          "indexed": false,
          "internalType": "bool",
          "name": "approved",
          "type": "bool"
        }
      ],
      "name": "ApprovalForAll",
      "type": "event"
    },
    {
      "anonymous": false,
      "inputs": [
        {
          "indexed": true,
          "internalType": "bytes32",
          "name": "role",
          "type": "bytes32"
        },
        {
          "indexed": true,
          "internalType": "bytes32",
          "name": "previousAdminRole",
          "type": "bytes32"
        },
        {
          "indexed": true,
          "internalType": "bytes32",
          "name": "newAdminRole",
          "type": "bytes32"
        }
      ],
      "name": "RoleAdminChanged",
      "type": "event"
    },
    {
      "anonymous": false,
      "inputs": [
        {
          "indexed": true,
          "internalType": "bytes32",
          "name": "role",
          "type": "bytes32"
        },
        {
          "indexed": true,
          "internalType": "address",
          "name": "account",
          "type": "address"
        },
        {
          "indexed": true,
          "internalType": "address",
          "name": "sender",
          "type": "address"
        }
      ],
      "name": "RoleGranted",
      "type": "event"
    },
    {
      "anonymous": false,
      "inputs": [
        {
          "indexed": true,
          "internalType": "bytes32",
          "name": "role",
          "type": "bytes32"
        },
        {
          "indexed": true,
          "internalType": "address",
          "name": "account",
          "type": "address"
        },
        {
          "indexed": true,
          "internalType": "address",
          "name": "sender",
          "type": "address"
        }
      ],
      "name": "RoleRevoked",
      "type": "event"
    },
    {
      "anonymous": false,
      "inputs": [
        {
          "indexed": true,
          "internalType": "address",
          "name": "operator",
          "type": "address"
        },
        {
          "indexed": true,
          "internalType": "address",
          "name": "from",
          "type": "address"
        },
        {
          "indexed": true,
          "internalType": "address",
          "name": "to",
          "type": "address"
        },
        {
          "indexed": false,
          "internalType": "uint256[]",
          "name": "ids",
          "type": "uint256[]"
        },
        {
          "indexed": false,
          "internalType": "uint256[]",
          "name": "values",
          "type": "uint256[]"
        }
      ],
      "name": "TransferBatch",
      "type": "event"
    },
    {
      "anonymous": false,
      "inputs": [
        {
          "indexed": true,
          "internalType": "address",
          "name": "operator",
          "type": "address"
        },
        {
          "indexed": true,
          "internalType": "address",
          "name": "from",
          "type": "address"
        },
        {
          "indexed": true,
          "internalType": "address",
          "name": "to",
          "type": "address"
        },
        {
          "indexed": false,
          "internalType": "uint256",
          "name": "id",
          "type": "uint256"
        },
        {
          "indexed": false,
          "internalType": "uint256",
          "name": "value",
          "type": "uint256"
        }
      ],
      "name": "TransferSingle",
      "type": "event"
    },
    {
      "anonymous": false,
      "inputs": [
        {
          "indexed": false,
          "internalType": "string",
          "name": "value",
          "type": "string"
        },
        {
          "indexed": true,
          "internalType": "uint256",
          "name": "id",
          "type": "uint256"
        }
      ],
      "name": "URI",
      "type": "event"
    },
    {
      "inputs": [],
      "name": "DEFAULT_ADMIN_ROLE",
      "outputs": [
        {
          "internalType": "bytes32",
          "name": "",
          "type": "bytes32"
        }
      ],
      "stateMutability": "view",
      "type": "function"
    },
    {
      "inputs": [],
      "name": "MINTER_ROLE",
      "outputs": [
        {
          "internalType": "bytes32",
          "name": "",
          "type": "bytes32"
        }
      ],
      "stateMutability": "view",
      "type": "function"
    },
    {
      "inputs": [],
      "name": "URI_SETTER_ROLE",
      "outputs": [
        {
          "internalType": "bytes32",
          "name": "",
          "type": "bytes32"
        }
      ],
      "stateMutability": "view",
      "type": "function"
    },
    {
      "inputs": [
        {
          "internalType": "address",
          "name": "account",
          "type": "address"
        },
        {
          "internalType": "uint256",
          "name": "id",
          "type": "uint256"
        }
      ],
      "name": "balanceOf",
      "outputs": [
        {
          "internalType": "uint256",
          "name": "",
          "type": "uint256"
        }
      ],
      "stateMutability": "view",
      "type": "function"
    },
    {
      "inputs": [
        {
          "internalType": "address[]",
          "name": "accounts",
          "type": "address[]"
        },
        {
          "internalType": "uint256[]",
          "name": "ids",
          "type": "uint256[]"
        }
      ],
      "name": "balanceOfBatch",
      "outputs": [
        {
          "internalType": "uint256[]",
          "name": "",
          "type": "uint256[]"
        }
      ],
      "stateMutability": "view",
      "type": "function"
    },
    {
      "inputs": [
        {
          "internalType": "address",
          "name": "account",
          "type": "address"
        },
        {
          "internalType": "uint256",
          "name": "id",
          "type": "uint256"
        },
        {
          "internalType": "uint256",
          "name": "value",
          "type": "uint256"
        }
      ],
      "name": "burn",
      "outputs": [],
      "stateMutability": "nonpayable",
      "type": "function"
    },
    {
      "inputs": [
        {
          "internalType": "address",
          "name": "account",
          "type": "address"
        },
        {
          "internalType": "uint256[]",
          "name": "ids",
          "type": "uint256[]"
        },
        {
          "internalType": "uint256[]",
          "name": "values",
          "type": "uint256[]"
        }
      ],
      "name": "burnBatch",
      "outputs": [],
      "stateMutability": "nonpayable",
      "type": "function"
    },
    {
      "inputs": [
        {
          "internalType": "uint256",
          "name": "id",
          "type": "uint256"
        }
      ],
      "name": "exists",
      "outputs": [
        {
          "internalType": "bool",
          "name": "",
          "type": "bool"
        }
      ],
      "stateMutability": "view",
      "type": "function"
    },
    {
      "inputs": [
        {
          "internalType": "bytes32",
          "name": "role",
          "type": "bytes32"
        }
      ],
      "name": "getRoleAdmin",
      "outputs": [
        {
          "internalType": "bytes32",
          "name": "",
          "type": "bytes32"
        }
      ],
      "stateMutability": "view",
      "type": "function"
    },
    {
      "inputs": [
        {
          "internalType": "bytes32",
          "name": "role",
          "type": "bytes32"
        },
        {
          "internalType": "address",
          "name": "account",
          "type": "address"
        }
      ],
      "name": "grantRole",
      "outputs": [],
      "stateMutability": "nonpayable",
      "type": "function"
    },
    {
      "inputs": [
        {
          "internalType": "bytes32",
          "name": "role",
          "type": "bytes32"
        },
        {
          "internalType": "address",
          "name": "account",
          "type": "address"
        }
      ],
      "name": "hasRole",
      "outputs": [
        {
          "internalType": "bool",
          "name": "",
          "type": "bool"
        }
      ],
      "stateMutability": "view",
      "type": "function"
    },
    {
      "inputs": [
        {
          "internalType": "address",
          "name": "account",
          "type": "address"
        },
        {
          "internalType": "address",
          "name": "operator",
          "type": "address"
        }
      ],
      "name": "isApprovedForAll",
      "outputs": [
        {
          "internalType": "bool",
          "name": "",
          "type": "bool"
        }
      ],
      "stateMutability": "view",
      "type": "function"
    },
    {
      "inputs": [
        {
          "internalType": "address",
          "name": "account",
          "type": "address"
        },
        {
          "internalType": "uint256",
          "name": "id",
          "type": "uint256"
        },
        {
          "internalType": "uint256",
          "name": "amount",
          "type": "uint256"
        },
        {
          "internalType": "bytes",
          "name": "data",
          "type": "bytes"
        }
      ],
      "name": "mint",
      "outputs": [],
      "stateMutability": "nonpayable",
      "type": "function"
    },
    {
      "inputs": [
        {
          "internalType": "address",
          "name": "to",
          "type": "address"
        },
        {
          "internalType": "uint256[]",
          "name": "ids",
          "type": "uint256[]"
        },
        {
          "internalType": "uint256[]",
          "name": "amounts",
          "type": "uint256[]"
        },
        {
          "internalType": "bytes",
          "name": "data",
          "type": "bytes"
        }
      ],
      "name": "mintBatch",
      "outputs": [],
      "stateMutability": "nonpayable",
      "type": "function"
    },
    {
      "inputs": [
        {
          "internalType": "bytes32",
          "name": "role",
          "type": "bytes32"
        },
        {
          "internalType": "address",
          "name": "account",
          "type": "address"
        }
      ],
      "name": "renounceRole",
      "outputs": [],
      "stateMutability": "nonpayable",
      "type": "function"
    },
    {
      "inputs": [
        {
          "internalType": "bytes32",
          "name": "role",
          "type": "bytes32"
        },
        {
          "internalType": "address",
          "name": "account",
          "type": "address"
        }
      ],
      "name": "revokeRole",
      "outputs": [],
      "stateMutability": "nonpayable",
      "type": "function"
    },
    {
      "inputs": [
        {
          "internalType": "address",
          "name": "from",
          "type": "address"
        },
        {
          "internalType": "address",
          "name": "to",
          "type": "address"
        },
        {
          "internalType": "uint256[]",
          "name": "ids",
          "type": "uint256[]"
        },
        {
          "internalType": "uint256[]",
          "name": "amounts",
          "type": "uint256[]"
        },
        {
          "internalType": "bytes",
          "name": "data",
          "type": "bytes"
        }
      ],
      "name": "safeBatchTransferFrom",
      "outputs": [],
      "stateMutability": "nonpayable",
      "type": "function"
    },
    {
      "inputs": [
        {
          "internalType": "address",
          "name": "from",
          "type": "address"
        },
        {
          "internalType": "address",
          "name": "to",
          "type": "address"
        },
        {
          "internalType": "uint256",
          "name": "id",
          "type": "uint256"
        },
        {
          "internalType": "uint256",
          "name": "amount",
          "type": "uint256"
        },
        {
          "internalType": "bytes",
          "name": "data",
          "type": "bytes"
        }
      ],
      "name": "safeTransferFrom",
      "outputs": [],
      "stateMutability": "nonpayable",
      "type": "function"
    },
    {
      "inputs": [
        {
          "internalType": "address",
          "name": "operator",
          "type": "address"
        },
        {
          "internalType": "bool",
          "name": "approved",
          "type": "bool"
        }
      ],
      "name": "setApprovalForAll",
      "outputs": [],
      "stateMutability": "nonpayable",
      "type": "function"
    },
    {
      "inputs": [
        {
          "internalType": "string",
          "name": "newuri",
          "type": "string"
        }
      ],
      "name": "setURI",
      "outputs": [],
      "stateMutability": "nonpayable",
      "type": "function"
    },
    {
      "inputs": [
        {
          "internalType": "bytes4",
          "name": "interfaceId",
          "type": "bytes4"
        }
      ],
      "name": "supportsInterface",
      "outputs": [
        {
          "internalType": "bool",
          "name": "",
          "type": "bool"
        }
      ],
      "stateMutability": "view",
      "type": "function"
    },
    {
      "inputs": [
        {
          "internalType": "uint256",
          "name": "id",
          "type": "uint256"
        }
      ],
      "name": "totalSupply",
      "outputs": [
        {
          "internalType": "uint256",
          "name": "",
          "type": "uint256"
        }
      ],
      "stateMutability": "view",
      "type": "function"
    },
    {
      "inputs": [
        {
          "internalType": "uint256",
          "name": "",
          "type": "uint256"
        }
      ],
      "name": "uri",
      "outputs": [
        {
          "internalType": "string",
          "name": "",
          "type": "string"
        }
      ],
      "stateMutability": "view",
      "type": "function"
    }
  ],
  "bytecode": "0x60806040523480156200001157600080fd5b506040805160208101909152600081526200002c8162000098565b506200003a600033620000b1565b620000667f7804d923f43a17d325d77e781528e0793b2edd9890ab45fc64efd7b4b427744c33620000b1565b620000927f9f2df0fed2c77648de5860a4cc508cd0818c85b8b8a1ab4ceeef8d981c8956a633620000b1565b62000238565b8051620000ad90600290602084019062000155565b5050565b60008281526003602090815260408083206001600160a01b038516845290915290205460ff16620000ad5760008281526003602090815260408083206001600160a01b03851684529091529020805460ff19166001179055620001113390565b6001600160a01b0316816001600160a01b0316837f2f8788117e7eff1d82e926ec794901d17c78024a50270940304540a733656f0d60405160405180910390a45050565b8280546200016390620001fb565b90600052602060002090601f016020900481019282620001875760008555620001d2565b82601f10620001a257805160ff1916838001178555620001d2565b82800160010185558215620001d2579182015b82811115620001d2578251825591602001919060010190620001b5565b50620001e0929150620001e4565b5090565b5b80821115620001e05760008155600101620001e5565b600181811c908216806200021057607f821691505b602082108114156200023257634e487b7160e01b600052602260045260246000fd5b50919050565b61258b80620002486000396000f3fe608060405234801561001057600080fd5b506004361061014c5760003560e01c80636b20c454116100c3578063bd85b0391161007c578063bd85b039146102fb578063d53913931461031b578063d547741f14610342578063e985e9c514610355578063f242432a14610391578063f5298aca146103a457600080fd5b80636b20c45414610280578063731133e9146102935780637f345710146102a657806391d14854146102cd578063a217fddf146102e0578063a22cb465146102e857600080fd5b8063248a9ca311610115578063248a9ca3146101e25780632eb2c2d6146102055780632f2ff15d1461021857806336568abe1461022b5780634e1273f41461023e5780634f558e791461025e57600080fd5b8062fdd58e1461015157806301ffc9a71461017757806302fe53051461019a5780630e89341c146101af5780631f7fdffa146101cf575b600080fd5b61016461015f366004611cd1565b6103b7565b6040519081526020015b60405180910390f35b61018a610185366004611e8e565b61044e565b604051901515815260200161016e565b6101ad6101a8366004611ec8565b61045f565b005b6101c26101bd366004611e52565b610497565b60405161016e91906120d8565b6101ad6101dd366004611bfd565b61052b565b6101646101f0366004611e52565b60009081526003602052604090206001015490565b6101ad610213366004611a7d565b610569565b6101ad610226366004611e6b565b6105f9565b6101ad610239366004611e6b565b610624565b61025161024c366004611d82565b61069e565b60405161016e9190612097565b61018a61026c366004611e52565b600090815260046020526040902054151590565b6101ad61028e366004611b8a565b6107c7565b6101ad6102a1366004611d2e565b61080a565b6101647f7804d923f43a17d325d77e781528e0793b2edd9890ab45fc64efd7b4b427744c81565b61018a6102db366004611e6b565b610841565b610164600081565b6101ad6102f6366004611c95565b61086c565b610164610309366004611e52565b60009081526004602052604090205490565b6101647f9f2df0fed2c77648de5860a4cc508cd0818c85b8b8a1ab4ceeef8d981c8956a681565b6101ad610350366004611e6b565b610877565b61018a610363366004611a4a565b6001600160a01b03918216600090815260016020908152604080832093909416825291909152205460ff1690565b6101ad61039f366004611b26565b61089d565b6101ad6103b2366004611cfb565b6108e2565b60006001600160a01b0383166104285760405162461bcd60e51b815260206004820152602b60248201527f455243313135353a2062616c616e636520717565727920666f7220746865207a60448201526a65726f206164647265737360a81b60648201526084015b60405180910390fd5b506000908152602081815260408083206001600160a01b03949094168352929052205490565b600061045982610925565b92915050565b7f7804d923f43a17d325d77e781528e0793b2edd9890ab45fc64efd7b4b427744c61048a813361094a565b610493826109ae565b5050565b6060600280546104a6906123d3565b80601f01602080910402602001604051908101604052809291908181526020018280546104d2906123d3565b801561051f5780601f106104f45761010080835404028352916020019161051f565b820191906000526020600020905b81548152906001019060200180831161050257829003601f168201915b50505050509050919050565b7f9f2df0fed2c77648de5860a4cc508cd0818c85b8b8a1ab4ceeef8d981c8956a6610556813361094a565b610562858585856109c1565b5050505050565b6001600160a01b03851633148061058557506105858533610363565b6105ec5760405162461bcd60e51b815260206004820152603260248201527f455243313135353a207472616e736665722063616c6c6572206973206e6f74206044820152711bdddb995c881b9bdc88185c1c1c9bdd995960721b606482015260840161041f565b6105628585858585610b1b565b600082815260036020526040902060010154610615813361094a565b61061f8383610cc5565b505050565b6001600160a01b03811633146106945760405162461bcd60e51b815260206004820152602f60248201527f416363657373436f6e74726f6c3a2063616e206f6e6c792072656e6f756e636560448201526e103937b632b9903337b91039b2b63360891b606482015260840161041f565b6104938282610d4b565b606081518351146107035760405162461bcd60e51b815260206004820152602960248201527f455243313135353a206163636f756e747320616e6420696473206c656e677468604482015268040dad2e6dac2e8c6d60bb1b606482015260840161041f565b600083516001600160401b0381111561071e5761071e612481565b604051908082528060200260200182016040528015610747578160200160208202803683370190505b50905060005b84518110156107bf5761079285828151811061076b5761076b61246b565b60200260200101518583815181106107855761078561246b565b60200260200101516103b7565b8282815181106107a4576107a461246b565b60209081029190910101526107b88161243a565b905061074d565b509392505050565b6001600160a01b0383163314806107e357506107e38333610363565b6107ff5760405162461bcd60e51b815260040161041f90612177565b61061f838383610db2565b7f9f2df0fed2c77648de5860a4cc508cd0818c85b8b8a1ab4ceeef8d981c8956a6610835813361094a565b61056285858585610f40565b60009182526003602090815260408084206001600160a01b0393909316845291905290205460ff1690565b610493338383611016565b600082815260036020526040902060010154610893813361094a565b61061f8383610d4b565b6001600160a01b0385163314806108b957506108b98533610363565b6108d55760405162461bcd60e51b815260040161041f90612177565b61056285858585856110f7565b6001600160a01b0383163314806108fe57506108fe8333610363565b61091a5760405162461bcd60e51b815260040161041f90612177565b61061f838383611214565b60006001600160e01b03198216637965db0b60e01b1480610459575061045982611315565b6109548282610841565b6104935761096c816001600160a01b03166014611365565b610977836020611365565b604051602001610988929190611f7f565b60408051601f198184030181529082905262461bcd60e51b825261041f916004016120d8565b80516104939060029060208401906118a1565b6001600160a01b0384166109e75760405162461bcd60e51b815260040161041f906122da565b8151835114610a085760405162461bcd60e51b815260040161041f90612292565b33610a1881600087878787611507565b60005b8451811015610ab357838181518110610a3657610a3661246b565b6020026020010151600080878481518110610a5357610a5361246b565b602002602001015181526020019081526020016000206000886001600160a01b03166001600160a01b031681526020019081526020016000206000828254610a9b919061233e565b90915550819050610aab8161243a565b915050610a1b565b50846001600160a01b031660006001600160a01b0316826001600160a01b03167f4a39dc06d4c0dbc64b70af90fd698a233a518aa5d07e595d983b8c0526c8f7fb8787604051610b049291906120aa565b60405180910390a461056281600087878787611515565b8151835114610b3c5760405162461bcd60e51b815260040161041f90612292565b6001600160a01b038416610b625760405162461bcd60e51b815260040161041f906121c0565b33610b71818787878787611507565b60005b8451811015610c57576000858281518110610b9157610b9161246b565b602002602001015190506000858381518110610baf57610baf61246b565b602090810291909101810151600084815280835260408082206001600160a01b038e168352909352919091205490915081811015610bff5760405162461bcd60e51b815260040161041f90612248565b6000838152602081815260408083206001600160a01b038e8116855292528083208585039055908b16825281208054849290610c3c90849061233e565b9250508190555050505080610c509061243a565b9050610b74565b50846001600160a01b0316866001600160a01b0316826001600160a01b03167f4a39dc06d4c0dbc64b70af90fd698a233a518aa5d07e595d983b8c0526c8f7fb8787604051610ca79291906120aa565b60405180910390a4610cbd818787878787611515565b505050505050565b610ccf8282610841565b6104935760008281526003602090815260408083206001600160a01b03851684529091529020805460ff19166001179055610d073390565b6001600160a01b0316816001600160a01b0316837f2f8788117e7eff1d82e926ec794901d17c78024a50270940304540a733656f0d60405160405180910390a45050565b610d558282610841565b156104935760008281526003602090815260408083206001600160a01b0385168085529252808320805460ff1916905551339285917ff6391f5c32d9c69d2a47ea670b442974b53935d1edc7fd64eb21e047a839171b9190a45050565b6001600160a01b038316610dd85760405162461bcd60e51b815260040161041f90612205565b8051825114610df95760405162461bcd60e51b815260040161041f90612292565b6000339050610e1c81856000868660405180602001604052806000815250611507565b60005b8351811015610ee1576000848281518110610e3c57610e3c61246b565b602002602001015190506000848381518110610e5a57610e5a61246b565b602090810291909101810151600084815280835260408082206001600160a01b038c168352909352919091205490915081811015610eaa5760405162461bcd60e51b815260040161041f90612133565b6000928352602083815260408085206001600160a01b038b1686529091529092209103905580610ed98161243a565b915050610e1f565b5060006001600160a01b0316846001600160a01b0316826001600160a01b03167f4a39dc06d4c0dbc64b70af90fd698a233a518aa5d07e595d983b8c0526c8f7fb8686604051610f329291906120aa565b60405180910390a450505050565b6001600160a01b038416610f665760405162461bcd60e51b815260040161041f906122da565b33610f8681600087610f7788611680565b610f8088611680565b87611507565b6000848152602081815260408083206001600160a01b038916845290915281208054859290610fb690849061233e565b909155505060408051858152602081018590526001600160a01b0380881692600092918516917fc3d58168c5ae7397731d063d5bbf3d657854427343f4c083240f7aacaa2d0f62910160405180910390a4610562816000878787876116cb565b816001600160a01b0316836001600160a01b0316141561108a5760405162461bcd60e51b815260206004820152602960248201527f455243313135353a2073657474696e6720617070726f76616c20737461747573604482015268103337b91039b2b63360b91b606482015260840161041f565b6001600160a01b03838116600081815260016020908152604080832094871680845294825291829020805460ff191686151590811790915591519182527f17307eab39ab6107e8899845ad3d59bd9653f200f220920489ca2b5937696c31910160405180910390a3505050565b6001600160a01b03841661111d5760405162461bcd60e51b815260040161041f906121c0565b3361112d818787610f7788611680565b6000848152602081815260408083206001600160a01b038a1684529091529020548381101561116e5760405162461bcd60e51b815260040161041f90612248565b6000858152602081815260408083206001600160a01b038b81168552925280832087850390559088168252812080548692906111ab90849061233e565b909155505060408051868152602081018690526001600160a01b03808916928a821692918616917fc3d58168c5ae7397731d063d5bbf3d657854427343f4c083240f7aacaa2d0f62910160405180910390a461120b8288888888886116cb565b50505050505050565b6001600160a01b03831661123a5760405162461bcd60e51b815260040161041f90612205565b336112698185600061124b87611680565b61125487611680565b60405180602001604052806000815250611507565b6000838152602081815260408083206001600160a01b0388168452909152902054828110156112aa5760405162461bcd60e51b815260040161041f90612133565b6000848152602081815260408083206001600160a01b03898116808652918452828520888703905582518981529384018890529092908616917fc3d58168c5ae7397731d063d5bbf3d657854427343f4c083240f7aacaa2d0f62910160405180910390a45050505050565b60006001600160e01b03198216636cdb3d1360e11b148061134657506001600160e01b031982166303a24d0760e21b145b8061045957506301ffc9a760e01b6001600160e01b0319831614610459565b60606000611374836002612356565b61137f90600261233e565b6001600160401b0381111561139657611396612481565b6040519080825280601f01601f1916602001820160405280156113c0576020820181803683370190505b509050600360fc1b816000815181106113db576113db61246b565b60200101906001600160f81b031916908160001a905350600f60fb1b8160018151811061140a5761140a61246b565b60200101906001600160f81b031916908160001a905350600061142e846002612356565b61143990600161233e565b90505b60018111156114b1576f181899199a1a9b1b9c1cb0b131b232b360811b85600f166010811061146d5761146d61246b565b1a60f81b8282815181106114835761148361246b565b60200101906001600160f81b031916908160001a90535060049490941c936114aa816123bc565b905061143c565b5083156115005760405162461bcd60e51b815260206004820181905260248201527f537472696e67733a20686578206c656e67746820696e73756666696369656e74604482015260640161041f565b9392505050565b610cbd868686868686611795565b6001600160a01b0384163b15610cbd5760405163bc197c8160e01b81526001600160a01b0385169063bc197c81906115599089908990889088908890600401611ff4565b602060405180830381600087803b15801561157357600080fd5b505af19250505080156115a3575060408051601f3d908101601f191682019092526115a091810190611eab565b60015b611650576115af612497565b806308c379a014156115e957506115c46124b3565b806115cf57506115eb565b8060405162461bcd60e51b815260040161041f91906120d8565b505b60405162461bcd60e51b815260206004820152603460248201527f455243313135353a207472616e7366657220746f206e6f6e20455243313135356044820152732932b1b2b4bb32b91034b6b83632b6b2b73a32b960611b606482015260840161041f565b6001600160e01b0319811663bc197c8160e01b1461120b5760405162461bcd60e51b815260040161041f906120eb565b604080516001808252818301909252606091600091906020808301908036833701905050905082816000815181106116ba576116ba61246b565b602090810291909101015292915050565b6001600160a01b0384163b15610cbd5760405163f23a6e6160e01b81526001600160a01b0385169063f23a6e619061170f9089908990889088908890600401612052565b602060405180830381600087803b15801561172957600080fd5b505af1925050508015611759575060408051601f3d908101601f1916820190925261175691810190611eab565b60015b611765576115af612497565b6001600160e01b0319811663f23a6e6160e01b1461120b5760405162461bcd60e51b815260040161041f906120eb565b6001600160a01b03851661181c5760005b835181101561181a578281815181106117c1576117c161246b565b6020026020010151600460008684815181106117df576117df61246b565b602002602001015181526020019081526020016000206000828254611804919061233e565b9091555061181390508161243a565b90506117a6565b505b6001600160a01b038416610cbd5760005b835181101561120b578281815181106118485761184861246b565b6020026020010151600460008684815181106118665761186661246b565b60200260200101518152602001908152602001600020600082825461188b9190612375565b9091555061189a90508161243a565b905061182d565b8280546118ad906123d3565b90600052602060002090601f0160209004810192826118cf5760008555611915565b82601f106118e857805160ff1916838001178555611915565b82800160010185558215611915579182015b828111156119155782518255916020019190600101906118fa565b50611921929150611925565b5090565b5b808211156119215760008155600101611926565b60006001600160401b0383111561195357611953612481565b60405161196a601f8501601f19166020018261240e565b80915083815284848401111561197f57600080fd5b83836020830137600060208583010152509392505050565b80356001600160a01b03811681146119ae57600080fd5b919050565b600082601f8301126119c457600080fd5b813560206119d18261231b565b6040516119de828261240e565b8381528281019150858301600585901b870184018810156119fe57600080fd5b60005b85811015611a1d57813584529284019290840190600101611a01565b5090979650505050505050565b600082601f830112611a3b57600080fd5b6115008383356020850161193a565b60008060408385031215611a5d57600080fd5b611a6683611997565b9150611a7460208401611997565b90509250929050565b600080600080600060a08688031215611a9557600080fd5b611a9e86611997565b9450611aac60208701611997565b935060408601356001600160401b0380821115611ac857600080fd5b611ad489838a016119b3565b94506060880135915080821115611aea57600080fd5b611af689838a016119b3565b93506080880135915080821115611b0c57600080fd5b50611b1988828901611a2a565b9150509295509295909350565b600080600080600060a08688031215611b3e57600080fd5b611b4786611997565b9450611b5560208701611997565b9350604086013592506060860135915060808601356001600160401b03811115611b7e57600080fd5b611b1988828901611a2a565b600080600060608486031215611b9f57600080fd5b611ba884611997565b925060208401356001600160401b0380821115611bc457600080fd5b611bd0878388016119b3565b93506040860135915080821115611be657600080fd5b50611bf3868287016119b3565b9150509250925092565b60008060008060808587031215611c1357600080fd5b611c1c85611997565b935060208501356001600160401b0380821115611c3857600080fd5b611c44888389016119b3565b94506040870135915080821115611c5a57600080fd5b611c66888389016119b3565b93506060870135915080821115611c7c57600080fd5b50611c8987828801611a2a565b91505092959194509250565b60008060408385031215611ca857600080fd5b611cb183611997565b915060208301358015158114611cc657600080fd5b809150509250929050565b60008060408385031215611ce457600080fd5b611ced83611997565b946020939093013593505050565b600080600060608486031215611d1057600080fd5b611d1984611997565b95602085013595506040909401359392505050565b60008060008060808587031215611d4457600080fd5b611d4d85611997565b9350602085013592506040850135915060608501356001600160401b03811115611d7657600080fd5b611c8987828801611a2a565b60008060408385031215611d9557600080fd5b82356001600160401b0380821115611dac57600080fd5b818501915085601f830112611dc057600080fd5b81356020611dcd8261231b565b604051611dda828261240e565b8381528281019150858301600585901b870184018b1015611dfa57600080fd5b600096505b84871015611e2457611e1081611997565b835260019690960195918301918301611dff565b5096505086013592505080821115611e3b57600080fd5b50611e48858286016119b3565b9150509250929050565b600060208284031215611e6457600080fd5b5035919050565b60008060408385031215611e7e57600080fd5b82359150611a7460208401611997565b600060208284031215611ea057600080fd5b81356115008161253c565b600060208284031215611ebd57600080fd5b81516115008161253c565b600060208284031215611eda57600080fd5b81356001600160401b03811115611ef057600080fd5b8201601f81018413611f0157600080fd5b611f108482356020840161193a565b949350505050565b600081518084526020808501945080840160005b83811015611f4857815187529582019590820190600101611f2c565b509495945050505050565b60008151808452611f6b81602086016020860161238c565b601f01601f19169290920160200192915050565b7f416363657373436f6e74726f6c3a206163636f756e7420000000000000000000815260008351611fb781601785016020880161238c565b7001034b99036b4b9b9b4b733903937b6329607d1b6017918401918201528351611fe881602884016020880161238c565b01602801949350505050565b6001600160a01b0386811682528516602082015260a06040820181905260009061202090830186611f18565b82810360608401526120328186611f18565b905082810360808401526120468185611f53565b98975050505050505050565b6001600160a01b03868116825285166020820152604081018490526060810183905260a06080820181905260009061208c90830184611f53565b979650505050505050565b6020815260006115006020830184611f18565b6040815260006120bd6040830185611f18565b82810360208401526120cf8185611f18565b95945050505050565b6020815260006115006020830184611f53565b60208082526028908201527f455243313135353a204552433131353552656365697665722072656a656374656040820152676420746f6b656e7360c01b606082015260800190565b60208082526024908201527f455243313135353a206275726e20616d6f756e7420657863656564732062616c604082015263616e636560e01b606082015260800190565b60208082526029908201527f455243313135353a2063616c6c6572206973206e6f74206f776e6572206e6f7260408201526808185c1c1c9bdd995960ba1b606082015260800190565b60208082526025908201527f455243313135353a207472616e7366657220746f20746865207a65726f206164604082015264647265737360d81b606082015260800190565b60208082526023908201527f455243313135353a206275726e2066726f6d20746865207a65726f206164647260408201526265737360e81b606082015260800190565b6020808252602a908201527f455243313135353a20696e73756666696369656e742062616c616e636520666f60408201526939103a3930b739b332b960b11b606082015260800190565b60208082526028908201527f455243313135353a2069647320616e6420616d6f756e7473206c656e677468206040820152670dad2e6dac2e8c6d60c31b606082015260800190565b60208082526021908201527f455243313135353a206d696e7420746f20746865207a65726f206164647265736040820152607360f81b606082015260800190565b60006001600160401b0382111561233457612334612481565b5060051b60200190565b6000821982111561235157612351612455565b500190565b600081600019048311821515161561237057612370612455565b500290565b60008282101561238757612387612455565b500390565b60005b838110156123a757818101518382015260200161238f565b838111156123b6576000848401525b50505050565b6000816123cb576123cb612455565b506000190190565b600181811c908216806123e757607f821691505b6020821081141561240857634e487b7160e01b600052602260045260246000fd5b50919050565b601f8201601f191681016001600160401b038111828210171561243357612433612481565b6040525050565b600060001982141561244e5761244e612455565b5060010190565b634e487b7160e01b600052601160045260246000fd5b634e487b7160e01b600052603260045260246000fd5b634e487b7160e01b600052604160045260246000fd5b600060033d11156124b05760046000803e5060005160e01c5b90565b600060443d10156124c15790565b6040516003193d81016004833e81513d6001600160401b0381602484011181841117156124f057505050505090565b82850191508151818111156125085750505050505090565b843d87010160208285010111156125225750505050505090565b6125316020828601018761240e565b509095945050505050565b6001600160e01b03198116811461255257600080fd5b5056fea2646970667358221220be0600da44e393a19744415fd024d1bb8a0a85ac1bf477bbbb4b4b47f872445f64736f6c63430008070033",
  "linkReferences": {},
  "deployedLinkReferences": {}
}